BOF      PERSHING GLOBAL CUST POS    DATA OF  06/04/2018 TO REMOTE JUE  BEGINS HERE  06/04/2018 22:22:21              UPDATED                                                                                                                                                                                                                                                                                                                                                                                                                                                                                                                                                                                                                                                A
                                              X
GCA00002366TGV1025171USD999997    USD999997US  Q02JVECUSD2018060120180604000000001092741000+000000001092741000+000000000000000000+000000000000000000+000000000000000000+000000000000000000+000000000000000000+000000000000000000+000000000000000000+000000000000000000+000000000000000000+000000000000000000+000000000000000000+000000000000000000+000000000000000000+000000000000000000+000000000000000000+000000000000000000+000000000000000000+USD99999710     000000000000000000+00000000000000000000000000000000000000000000ALVERDI BO50050010750001U.S.DOLLARS CURRENCY                                                                                                       NUSD000000000010927410+0000000000+000000010000000000+000000000010927410+USD              X
GCA00002367TGV1026651USD999997    USD999997US  Y12JVECUSD2018060420180604000000000000000000+000000000000000000+000000000000000000+000000000000000000+000000000000000000+000000000000000000+000000000000000000+000000000000000000+000000000000000000+000000000000000000+000000000000000000+000000000000000000+000000000000000000+000000000000000000+000000000000000000+000000000000000000+000000000000000000+000000000000000000+000000000000000000+USD99999710     000000000000000000+00000000000000000000000000000000000000000000GARZA     50050010750001U.S.DOLLARS CURRENCY                                                                                                       NUSD000000000000000000+0000000000+000000010000000000+000000000000000000+USD              X
GCA00002368TGV1026731USD999997    USD999997KY  L05JVECUSD2018060420180604000000000000000000+000000000000000000+000000000000000000+000000000000000000+000000000000000000+000000000000000000+000000000000000000+000000000000000000+000000000000000000+000000000000000000+000000000000000000+000000000000000000+000000000000000000+000000000000000000+000000000000000000+000000000000000000+000000000000000000+000000000000000000+000000000000000000+USD99999710     000000000000000000+00000000000000000000000000000000000000000000SEMINARIO 50050010750001U.S.DOLLARS CURRENCY                                                                                                       NUSD000000000000000000+0000000000+000000010000000000+000000000000000000+USD              X
GCA00002369TGV1028711L759A1260    L759A1260LU  788JVESUSD2018060420180604000000000011085200+000000000011085200+000000000011048800+000000000000000000+000000000000000000+000000000000000000+000000000000000000+000000000000000000+000000000000000000+000000000000000000+000000000011048800+000000000000000000+000000000000000000+000000000000000000+000000000000000000+000000000000740641+000000000000740641+000000000000740641+000000000000000000+L759A1260001072Y000000000000000000+00000000000000000000000000000000000000000000GERARDO TE50050001110004AMUNDI FDS II       EMERG MARKETS BOND  CLASS D (DIS) (USD) (OFFSHORE)                                                  RRRNUSD000000000007406410+0000000000+000000010000000000+000000000007406410+USDILU0954832324 X
GCA00002370TGV1028891USD999997    USD999997IE  823JVECUSD2018060420180604000000000000000000+000000000000000000+000000000000000000+000000000000000000+000000000000000000+000000000000000000+000000000000000000+000000000000000000+000000000000000000+000000000000000000+000000000000000000+000000000000000000+000000000000000000+000000000000000000+000000000000000000+000000000000000000+000000000000000000+000000000000000000+000000000000000000+USD99999710     000000000000000000+00000000000000000000000000000000000000000000ALIS SAFI 500   10750001U.S.DOLLARS CURRENCY                                                                                                       NUSD000000000000000000+0000000000+000000010000000000+000000000000000000+USD              X
GCA00002371TGV1028971L759A1260    L759A1260LU  214JVESUSD2018060420180604000000000040043800+000000000040043800+000000000039912300+000000000000000000+000000000000000000+000000000000000000+000000000000000000+000000000000000000+000000000000000000+000000000000000000+000000000039912300+000000000000000000+000000000000000000+000000000000000000+000000000000000000+000000000002675468+000000000002675468+000000000002675468+000000000000000000+L759A1260001072Y000000000000000000+00000000000000000000000000000000000000000000GERARDO TR500   01110004AMUNDI FDS II       EMERG MARKETS BOND  CLASS D (DIS) (USD) (OFFSHORE)                                                  RRRNUSD000000000026754680+0000000000+000000010000000000+000000000026754680+USDILU0954832324 X
GCA00002372TGV1030691USD999997    USD999997US  823JVECUSD2018060420180604000000000000000000+000000000000000000+000000000000000000+000000000000000000+000000000000000000+000000000000000000+000000000000000000+000000000000000000+000000000000000000+000000000000000000+000000000000000000+000000000000000000+000000000000000000+000000000000000000+000000000000000000+000000000000000000+000000000000000000+000000000000000000+000000000000000000+USD99999710     000000000000000000+00000000000000000000000000000000000000000000DE SULAIMA500   10750001U.S.DOLLARS CURRENCY                                                                                                       NUSD000000000000000000+0000000000+000000010000000000+000000000000000000+USD              X
GCA00002373TGV1030852USD999997    USD999997KY  530JVECUSD2018060420180604000000000000000000+000000000000000000+000000000000000000+000000000000000000+000000000000000000+000000000000000000+000000000000000000+000000000000000000+000000000000000000+000000000000000000+000000000000000000+000000000000000000+000000000000000000+000000000000000000+000000000000000000+000000000000000000+000000000000000000+000000000000000000+000000000000000000+USD99999710     000000000000000000+00000000000000000000000000000000000000000000MORALES VA50050010750001U.S.DOLLARS CURRENCY                                                                                                       NUSD000000000000000000+0000000000+000000010000000000+000000000000000000+USD              X
GCA00002374TGV1031501USD999997    USD999997US  819JVECUSD2018060420180604000000000000000000+000000000000000000+000000000000000000+000000000000000000+000000000000000000+000000000000000000+000000000000000000+000000000000000000+000000000000000000+000000000000000000+000000000000000000+000000000000000000+000000000000000000+000000000000000000+000000000000000000+000000000000000000+000000000000000000+000000000000000000+000000000000000000+USD99999710     000000000000000000+00000000000000000000000000000000000000000000NELIS     500   10750001U.S.DOLLARS CURRENCY                                                                                                       NUSD000000000000000000+0000000000+000000010000000000+000000000000000000+USD              X
GCA00002375TGV1031681USD999997    USD999997US  Q02JVECUSD2018060420180604000000000000000000+000000000000000000+000000000000000000+000000000000000000+000000000000000000+000000000000000000+000000000000000000+000000000000000000+000000000000000000+000000000000000000+000000000000000000+000000000000000000+000000000000000000+000000000000000000+000000000000000000+000000000000000000+000000000000000000+000000000000000000+000000000000000000+USD99999710     000000000000000000+00000000000000000000000000000000000000000000HERNANDEZ 500   10750001U.S.DOLLARS CURRENCY                                                                                                       NUSD000000000000000000+0000000000+000000010000000000+000000000000000000+USD              X
GCA00002376TGV1032181G5648E497    G5648E497IE  104JVESUSD2018060420180604000000000174557400+000000000174557400+000000000173933600+000000000000000000+000000000000000000+000000000000000000+000000000000000000+000000000000000000+000000000000000000+000000000000000000+000000000173933600+000000000000000000+000000000000000000+000000000000000000+000000000000000000+000000000001778740+000000000001778740+000000000001778740+000000000000000000+G5648E497001072Y000000000000000000+00000000000000000000000000000000000000000000REBOLLEDO 50050001110004LORD ABBETT HIGH    YIELD FUND CLASS N  (DIS) (USD)         (OFFSHORE)                                                  RRRNUSD000000000017787400+0000000000+000000010000000000+000000000017787400+USDIIE00BFNWZ025 X
GCA00002377TGV1032181G5648E778    G5648E778IE  104JVESUSD2018060420180604000000000076269800+000000000076269800+000000000076150900+000000000000000000+000000000000000000+000000000000000000+000000000000000000+000000000000000000+000000000000000000+000000000000000000+000000000076150900+000000000000000000+000000000000000000+000000000000000000+000000000000000000+000000000000732953+000000000000732953+000000000000732953+000000000000000000+G5648E778001072Y000000000000000000+00000000000000000000000000000000000000000000REBOLLEDO 50050001110004LORD ABBETT SHORT   DURATION INCOME     FUND CLASS N (DIS)  (USD) (OFFSHORE)                                            RRRNUSD000000000007329530+0000000000+000000010000000000+000000000007329530+USD              X
GCA00002378TGV1032752USD999997    USD999997US  Y12JVECUSD2018060420180604000000000051111000+000000000051111000+000000000000000000+000000000000000000+000000000000000000+000000000000000000+000000000000000000+000000000000000000+000000000000000000+000000000000000000+000000000000000000+000000000000000000+000000000000000000+000000000000000000+000000000000000000+000000000000000000+000000000000000000+000000000000000000+000000000000000000+USD99999710     000000000000000000+00000000000000000000000000000000000000000000PADILLA PE043   10750001U.S.DOLLARS CURRENCY                                                                                                       NUSD000000000000511110+0000000000+000000010000000000+000000000000511110+USD              X
GCA00002379TGV1032831USD999997    USD999997US  753JVECUSD2018060420180604000000000000000000+000000000000000000+000000000000000000+000000000000000000+000000000000000000+000000000000000000+000000000000000000+000000000000000000+000000000000000000+000000000000000000+000000000000000000+000000000000000000+000000000000000000+000000000000000000+000000000000000000+000000000000000000+000000000000000000+000000000000000000+000000000000000000+USD99999710     000000000000000000+00000000000000000000000000000000000000000000TREVINO GA50050010750001U.S.DOLLARS CURRENCY                                                                                                       NUSD000000000000000000+0000000000+000000010000000000+000000000000000000+USD              X
GCA00002380TGV1033092USD999997    USD999997US  Y12JVECUSD2018060420180604000000000000000000+000000000000000000+000000000000000000+000000000000000000+000000000000000000+000000000000000000+000000000000000000+000000000000000000+000000000000000000+000000000000000000+000000000000000000+000000000000000000+000000000000000000+000000000000000000+000000000000000000+000000000000000000+000000000000000000+000000000000000000+000000000000000000+USD99999710     000000000000000000+00000000000000000000000000000000000000000000REBOLLO ME50050010750001U.S.DOLLARS CURRENCY                                                                                                       NUSD000000000000000000+0000000000+000000010000000000+000000000000000000+USD              X
GCA00002381TGV1034081USD999997    USD999997US  329JVECUSD2018060420180604000000000000000000+000000000000000000+000000000000000000+000000000000000000+000000000000000000+000000000000000000+000000000000000000+000000000000000000+000000000000000000+000000000000000000+000000000000000000+000000000000000000+000000000000000000+000000000000000000+000000000000000000+000000000000000000+000000000000000000+000000000000000000+000000000000000000+USD99999710     000000000000000000+00000000000000000000000000000000000000000000SCOTIABANK50050010750001U.S.DOLLARS CURRENCY                                                                                                       NUSD000000000000000000+0000000000+000000010000000000+000000000000000000+USD              X
GCA00002382TGV1034571USD999997    USD999997US  M03JVECUSD2018060420180604000000000025432000+000000000025432000+000000000000000000+000000000000000000+000000000000000000+000000000000000000+000000000000000000+000000000000000000+000000000000000000+000000000000000000+000000000000000000+000000000000000000+000000000000000000+000000000000000000+000000000000000000+000000000000000000+000000000000000000+000000000000000000+000000000000000000+USD99999710     000000000000000000+00000000000000000000000000000000000000000000GONZALEZ V50050010750001U.S.DOLLARS CURRENCY                                                                                                       NUSD000000000000254320+0000000000+000000010000000000+000000000000254320+USD              X
GCA00002383TGV1034572USD999997    USD999997US  M03JVECUSD2018060420180604000000000025432000-000000000025432000-000000000000000000+000000000000000000+000000000000000000+000000000000000000+000000000000000000+000000000000000000+000000000000000000+000000000000000000+000000000000000000+000000000000000000+000000000000000000+000000000000000000+000000000000000000+000000000000000000+000000000000000000+000000000000000000+000000000000000000+USD99999710     000000000000000000+00000000000000000000000000000000000000000000GONZALEZ V50050010750001U.S.DOLLARS CURRENCY                                                                                                       NUSD000000000000254320-0000000000+000000010000000000+000000000000254320-USD              X
GCA00002384TGV103515146090E103    46090E103US  803JVESUSD2018060420180604000000000181400000+000000000181400000+000000000000000000+000000000000000000+000000000000000000+000000000000000000+000000000000000000+000000000000000000+000000000000000000+000000000000000000+000000000000000000+000000000000000000+000000000000000000+000000000000000000+000000000000000000+000000000015809010+000000000009485406+000000000007904505+000000000000000000+QQQ      10 162 000000000000000000+00000000000000000000000000000000000000000000MAZZINI NO500   10000002INVESCO QQQ TR      UNIT SER 1                                                                                          C CNUSD000000000316180200+0000000000+000000010000000000+000000000316180200+USDIUS46090E1038 X
GCB00002384TGV103515146090E103    46090E103US  803JVE000000000000000000+000000000000000000+      000000 00000000000000000000000000+000000000000000000+000000000000000000+000000000000000000+000000000000000000+000000000000000000+000000000000000000+000000000000000000+000000000000000000+000000000000000000+000000000000000000 000000000000000000+000000000000000000+000000000000000000+000000000000000000+000000000000000000+000000000000000000 000000001303760000000000000000000000+000000000000000000 000000000000000000                 000000000000000000+                                                                                                                                                                                                            X
GCA00002385TGV103515173935A104    73935A104US  803JVESUSD2018060420180604000000000000000000+000000000000000000+000000000181400000+000000000000000000+000000000000000000+000000000000000000+000000000000000000+000000000000000000+000000000000000000+000000000000000000+000000000000000000+000000000000000000+000000000000000000+000000000000000000+000000000000000000+000000000000000000+000000000000000000+000000000000000000+000000000000000000+73935A10410 162 000000000000000000+00000000000000000000000000000000000000000000MAZZINI NO500   10000004POWERSHARES ETF N/C EFF 6/4/18 1 OLD/ 1 NEW CU 46090E103    INVESTCO ETF                                                C CNUSD000000000000000000+0000000000+000000010000000000+000000000000000000+USDIUS73935A1043 X
GCB00002385TGV103515173935A104    73935A104US  803JVE000000000000000000+000000000000000000+      000000 00000000000000000000000000+000000000000000000+000000000000000000+000000000000000000+000000000000000000+000000000000000000+000000000000000000+000000000000000000+000000000000000000+000000000000000000+000000000000000000 000000000000000000+000000000000000000+000000000000000000+000000000000000000+000000000000000000+000000000000000000 000000001303760000000000000000000000+000000000000000000 000000000000000000                 000000000000000000+                                                                                                                                                                                                            X
GCA00002386TGV1035641USD999997    USD999997US  726JVECUSD2018060420180604000000000000000000+000000000000000000+000000000000000000+000000000000000000+000000000000000000+000000000000000000+000000000000000000+000000000000000000+000000000000000000+000000000000000000+000000000000000000+000000000000000000+000000000000000000+000000000000000000+000000000000000000+000000000000000000+000000000000000000+000000000000000000+000000000000000000+USD99999710     000000000000000000+00000000000000000000000000000000000000000000MARINO DE 500   10750001U.S.DOLLARS CURRENCY                                                                                                       NUSD000000000000000000+0000000000+000000010000000000+000000000000000000+USD              X
GCA00002387TGV1037051USD999997    USD999997US  725JVECUSD2018060420180604000000000000000000+000000000000000000+000000000000000000+000000000000000000+000000000000000000+000000000000000000+000000000000000000+000000000000000000+000000000000000000+000000000000000000+000000000000000000+000000000000000000+000000000000000000+000000000000000000+000000000000000000+000000000000000000+000000000000000000+000000000000000000+000000000000000000+USD99999710     000000000000000000+00000000000000000000000000000000000000000000HERRERABAR50050010750001U.S.DOLLARS CURRENCY                                                                                                       NUSD000000000000000000+0000000000+000000010000000000+000000000000000000+USD              X
GCA00002388TGV1037701F8586HBX8    F8586HBX8GB  557JVESUSD2018060420180604000000008000000000+000000008000000000+000000000000000000+000000000000000000+000000000000000000+000000000000000000+000000000000000000+000000000000000000+000000000000000000+000000000000000000+000000000000000000+000000000000000000+000000000000000000+000000000000000000+000000000000000000+000000000007986216+000000000007986216+000000000001597243+000000000000000000+F8586HBX8510509 000000000000000000+202006010000000000000000000000000000000000003868      50050056000006SOCIETE GENERALE    DEFINITIVE TERMS ANDCONDITIONS NOTE ON  DYNAMIC PORTFOLIO    0.000% 06/01/20 REGDTD 05/30/18           NUSD000000000079862160+0000000000+000000010000000000+000000000079862160+USDIXS1796959440 X
GCA00002389TGV1037701PER835DQ2    PER835DQ2GB  557JVESUSD2018060420180604000000000000000000+000000000000000000+000000008000000000+000000000000000000+000000000000000000+000000000000000000+000000000000000000+000000000000000000+000000000000000000+000000000000000000+000000000000000000+000000000000000000+000000000000000000+000000000000000000+000000000000000000+000000000000000000+000000000000000000+000000000000000000+000000000000000000+PER835DQ2510509 000000000000000000+202006010000000000000000000000000000000000003868      50050056000006SOCIETE GENERALE    DEFINITIVE TERMS ANDDO NOT USE SEE CU   F8586HBX8            0.000% 06/01/20 REGDTD 05/30/18           NUSD000000000000000000+0000000000+000000010000000000+000000000000000000+USD              X
GCA00002390TGV1037701USD999997    USD999997US  557JVECUSD2018060420180604000000000000000000+000000000000000000+000000000000000000+000000000000000000+000000000000000000+000000000000000000+000000000000000000+000000000000000000+000000000000000000+000000000000000000+000000000000000000+000000000000000000+000000000000000000+000000000000000000+000000000000000000+000000000000000000+000000000000000000+000000000000000000+000000000000000000+USD99999710     000000000000000000+000000000000000000000000000000000000000000003868      50050010750001U.S.DOLLARS CURRENCY                                                                                                       NUSD000000000000000000+0000000000+000000010000000000+000000000000000000+USD              X
GCA00002391TGV1038381USD999997    USD999997US  788JVECUSD2018060420180604000000000000000000+000000000000000000+000000000000000000+000000000000000000+000000000000000000+000000000000000000+000000000000000000+000000000000000000+000000000000000000+000000000000000000+000000000000000000+000000000000000000+000000000000000000+000000000000000000+000000000000000000+000000000000000000+000000000000000000+000000000000000000+000000000000000000+USD99999710     000000000000000000+00000000000000000000000000000000000000000000ELIZONDO D500   10750001U.S.DOLLARS CURRENCY                                                                                                       NUSD000000000000000000+0000000000+000000010000000000+000000000000000000+USD              X
GCA00002392TGV1038531USD999997    USD999997US  253JVECUSD2018060420180604000000000000000000+000000000000000000+000000000000000000+000000000000000000+000000000000000000+000000000000000000+000000000000000000+000000000000000000+000000000000000000+000000000000000000+000000000000000000+000000000000000000+000000000000000000+000000000000000000+000000000000000000+000000000000000000+000000000000000000+000000000000000000+000000000000000000+USD99999710     000000000000000000+00000000000000000000000000000000000000000000GOMEZ MONT50050010750001U.S.DOLLARS CURRENCY                                                                                                       NUSD000000000000000000+0000000000+000000010000000000+000000000000000000+USD              X
GCA00002393TGV1039451F8586HBX8    F8586HBX8GB  557JVESUSD2018060420180604000000010000000000+000000010000000000+000000000000000000+000000000000000000+000000000000000000+000000000000000000+000000000000000000+000000000000000000+000000000000000000+000000000000000000+000000000000000000+000000000000000000+000000000000000000+000000000000000000+000000000000000000+000000000009982770+000000000009982770+000000000001996554+000000000000000000+F8586HBX8510509 000000000000000000+202006010000000000000000000000000000000000003877      500   56000006SOCIETE GENERALE    DEFINITIVE TERMS ANDCONDITIONS NOTE ON  DYNAMIC PORTFOLIO    0.000% 06/01/20 REGDTD 05/30/18           NUSD000000000099827700+0000000000+000000010000000000+000000000099827700+USDIXS1796959440 X
GCA00002394TGV1039451PER835DQ2    PER835DQ2GB  557JVESUSD2018060420180604000000000000000000+000000000000000000+000000010000000000+000000000000000000+000000000000000000+000000000000000000+000000000000000000+000000000000000000+000000000000000000+000000000000000000+000000000000000000+000000000000000000+000000000000000000+000000000000000000+000000000000000000+000000000000000000+000000000000000000+000000000000000000+000000000000000000+PER835DQ2510509 000000000000000000+202006010000000000000000000000000000000000003877      500   56000006SOCIETE GENERALE    DEFINITIVE TERMS ANDDO NOT USE SEE CU   F8586HBX8            0.000% 06/01/20 REGDTD 05/30/18           NUSD000000000000000000+0000000000+000000010000000000+000000000000000000+USD              X
GCA00002395TGV1039451USD999997    USD999997US  557JVECUSD2018060420180604000000000000000000+000000000000000000+000000000000000000+000000000000000000+000000000000000000+000000000000000000+000000000000000000+000000000000000000+000000000000000000+000000000000000000+000000000000000000+000000000000000000+000000000000000000+000000000000000000+000000000000000000+000000000000000000+000000000000000000+000000000000000000+000000000000000000+USD99999710     000000000000000000+000000000000000000000000000000000000000000003877      500   10750001U.S.DOLLARS CURRENCY                                                                                                       NUSD000000000000000000+0000000000+000000010000000000+000000000000000000+USD              X
GCA00002396TGV1039521F8586HBX8    F8586HBX8GB  557JVESUSD2018060420180604000000002000000000+000000002000000000+000000000000000000+000000000000000000+000000000000000000+000000000000000000+000000000000000000+000000000000000000+000000000000000000+000000000000000000+000000000000000000+000000000000000000+000000000000000000+000000000000000000+000000000000000000+000000000001996554+000000000001996554+000000000000399311+000000000000000000+F8586HBX8510509 000000000000000000+20200601000000000000000000000000000000000000MARIN C   50050056000006SOCIETE GENERALE    DEFINITIVE TERMS ANDCONDITIONS NOTE ON  DYNAMIC PORTFOLIO    0.000% 06/01/20 REGDTD 05/30/18           NUSD000000000019965540+0000000000+000000010000000000+000000000019965540+USDIXS1796959440 X
GCA00002397TGV1039521PER835DQ2    PER835DQ2GB  557JVESUSD2018060420180604000000000000000000+000000000000000000+000000002000000000+000000000000000000+000000000000000000+000000000000000000+000000000000000000+000000000000000000+000000000000000000+000000000000000000+000000000000000000+000000000000000000+000000000000000000+000000000000000000+000000000000000000+000000000000000000+000000000000000000+000000000000000000+000000000000000000+PER835DQ2510509 000000000000000000+20200601000000000000000000000000000000000000MARIN C   50050056000006SOCIETE GENERALE    DEFINITIVE TERMS ANDDO NOT USE SEE CU   F8586HBX8            0.000% 06/01/20 REGDTD 05/30/18           NUSD000000000000000000+0000000000+000000010000000000+000000000000000000+USD              X
GCA00002398TGV1039521USD999997    USD999997US  557JVECUSD2018060420180604000000000000000000+000000000000000000+000000000000000000+000000000000000000+000000000000000000+000000000000000000+000000000000000000+000000000000000000+000000000000000000+000000000000000000+000000000000000000+000000000000000000+000000000000000000+000000000000000000+000000000000000000+000000000000000000+000000000000000000+000000000000000000+000000000000000000+USD99999710     000000000000000000+00000000000000000000000000000000000000000000MARIN C   50050010750001U.S.DOLLARS CURRENCY                                                                                                       NUSD000000000000000000+0000000000+000000010000000000+000000000000000000+USD              X
GCA00002399TGV1039941USD999997    USD999997US  R07JVECUSD2018060420180604000000000000000000+000000000000000000+000000000000000000+000000000000000000+000000000000000000+000000000000000000+000000000000000000+000000000000000000+000000000000000000+000000000000000000+000000000000000000+000000000000000000+000000000000000000+000000000000000000+000000000000000000+000000000000000000+000000000000000000+000000000000000000+000000000000000000+USD99999710     000000000000000000+00000000000000000000000000000000000000000000BATATA KHA500   10750001U.S.DOLLARS CURRENCY                                                                                                       NUSD000000000000000000+0000000000+000000010000000000+000000000000000000+USD              X
GCA00002400TGV1040341USD999997    USD999997US  P04JVECUSD2018060420180604000000000000000000+000000000000000000+000000000000000000+000000000000000000+000000000000000000+000000000000000000+000000000000000000+000000000000000000+000000000000000000+000000000000000000+000000000000000000+000000000000000000+000000000000000000+000000000000000000+000000000000000000+000000000000000000+000000000000000000+000000000000000000+000000000000000000+USD99999710     000000000000000000+0000000000000000000000000000000000000000000026462     50050010750001U.S.DOLLARS CURRENCY                                                                                                       NUSD000000000000000000+0000000000+000000010000000000+000000000000000000+USD              X
GCA00002401TGV1041091USD999997    USD999997US  823JVECUSD2018060420180604000000000000000000+000000000000000000+000000000000000000+000000000000000000+000000000000000000+000000000000000000+000000000000000000+000000000000000000+000000000000000000+000000000000000000+000000000000000000+000000000000000000+000000000000000000+000000000000000000+000000000000000000+000000000000000000+000000000000000000+000000000000000000+000000000000000000+USD99999710     000000000000000000+00000000000000000000000000000000000000000000KNUT KROSS500   10750001U.S.DOLLARS CURRENCY                                                                                                       NUSD000000000000000000+0000000000+000000010000000000+000000000000000000+USD              X
GCA00002402TGV1041251USD999997    USD999997US  L01JVECUSD2018060420180604000000000000000000+000000000000000000+000000000000000000+000000000000000000+000000000000000000+000000000000000000+000000000000000000+000000000000000000+000000000000000000+000000000000000000+000000000000000000+000000000000000000+000000000000000000+000000000000000000+000000000000000000+000000000000000000+000000000000000000+000000000000000000+000000000000000000+USD99999710     000000000000000000+00000000000000000000000000000000000000000000MONROY CAR500   10750001U.S.DOLLARS CURRENCY                                                                                                       NUSD000000000000000000+0000000000+000000010000000000+000000000000000000+USD              X
GCA00002403TGV1042651USD999997    USD999997US  348JVECUSD2018060420180604000000001839623000+000000001839623000+000000000000000000+000000000000000000+000000000000000000+000000000000000000+000000000000000000+000000000000000000+000000000000000000+000000000000000000+000000000000000000+000000000000000000+000000000000000000+000000000000000000+000000000000000000+000000000000000000+000000000000000000+000000000000000000+000000000000000000+USD99999710     000000000000000000+00000000000000000000000000000000000000000000FERNANDEZ 500   10750001U.S.DOLLARS CURRENCY                                                                                                       NUSD000000000018396230+0000000000+000000010000000000+000000000018396230+USD              X
GCA00002404TGV1042811G5648E497    G5648E497IE  214JVESUSD2018060420180604000000000243377200+000000000243377200+000000000242507400+000000000000000000+000000000000000000+000000000000000000+000000000000000000+000000000000000000+000000000000000000+000000000000000000+000000000242507400+000000000000000000+000000000000000000+000000000000000000+000000000000000000+000000000002480014+000000000002480014+000000000002480014+000000000000000000+G5648E497001072Y000000000000000000+00000000000000000000000000000000000000000000OCANA PRAD50050001110004LORD ABBETT HIGH    YIELD FUND CLASS N  (DIS) (USD)         (OFFSHORE)                                                  RRRNUSD000000000024800140+0000000000+000000010000000000+000000000024800140+USDIIE00BFNWZ025 X
GCA00002405TGV1042811USD999997    USD999997US  214JVECUSD2018060420180604000000000000000000+000000000000000000+000000000000000000+000000000000000000+000000000000000000+000000000000000000+000000000000000000+000000000000000000+000000000000000000+000000000000000000+000000000000000000+000000000000000000+000000000000000000+000000000000000000+000000000000000000+000000000000000000+000000000000000000+000000000000000000+000000000000000000+USD99999710     000000000000000000+00000000000000000000000000000000000000000000OCANA PRAD50050010750001U.S.DOLLARS CURRENCY                                                                                                       NUSD000000000000000000+0000000000+000000010000000000+000000000000000000+USD              X
GCA00002406TGV1043071USD999997    USD999997US  557JVECUSD2018060420180604000000000000000000+000000000000000000+000000000000000000+000000000000000000+000000000000000000+000000000000000000+000000000000000000+000000000000000000+000000000000000000+000000000000000000+000000000000000000+000000000000000000+000000000000000000+000000000000000000+000000000000000000+000000000000000000+000000000000000000+000000000000000000+000000000000000000+USD99999710     000000000000000000+00000000000000000000000000000000000000000000DE ANDA CH500   10750001U.S.DOLLARS CURRENCY                                                                                                       NUSD000000000000000000+0000000000+000000010000000000+000000000000000000+USD              X
GCA00002407TGV1043641L759A1260    L759A1260LU  611JVESUSD2018060420180604000000000081483600+000000000081483600+000000000081216000+000000000000000000+000000000000000000+000000000000000000+000000000000000000+000000000000000000+000000000000000000+000000000000000000+000000000081216000+000000000000000000+000000000000000000+000000000000000000+000000000000000000+000000000005444207+000000000005444207+000000000005444207+000000000000000000+L759A1260001072Y000000000000000000+00000000000000000000000000000000000000000000BARRIGA   500   01110004AMUNDI FDS II       EMERG MARKETS BOND  CLASS D (DIS) (USD) (OFFSHORE)                                                  RRRNUSD000000000054442070+0000000000+000000010000000000+000000000054442070+USDILU0954832324 X
GCA00002408TGV1043641USD999997    USD999997US  611JVECUSD2018060420180604000000000004297000-000000000004297000-000000000000000000+000000000000000000+000000000000000000+000000000000000000+000000000000000000+000000000000000000+000000000000000000+000000000000000000+000000000000000000+000000000000000000+000000000000000000+000000000000000000+000000000000000000+000000000000000000+000000000000000000+000000000000000000+000000000000000000+USD99999710     000000000000000000+00000000000000000000000000000000000000000000BARRIGA   500   10750001U.S.DOLLARS CURRENCY                                                                                                       NUSD000000000000042970-0000000000+000000010000000000+000000000000042970-USD              X
GCA00002409TGV1044481L759A1260    L759A1260LU  M65JVESUSD2018060420180604000000000023182900+000000000023182900+000000000023106800+000000000000000000+000000000000000000+000000000000000000+000000000000000000+000000000000000000+000000000000000000+000000000000000000+000000000023106800+000000000000000000+000000000000000000+000000000000000000+000000000000000000+000000000001548932+000000000001548932+000000000001548932+000000000000000000+L759A1260001072Y000000000000000000+00000000000000000000000000000000000000000000SOLIS     500   01110004AMUNDI FDS II       EMERG MARKETS BOND  CLASS D (DIS) (USD) (OFFSHORE)                                                  RRRNUSD000000000015489320+0000000000+000000010000000000+000000000015489320+USDILU0954832324 X
GCA00002410TGV1044971USD999997    USD999997US  803JVECUSD2018060420180604000000000000000000+000000000000000000+000000000000000000+000000000000000000+000000000000000000+000000000000000000+000000000000000000+000000000000000000+000000000000000000+000000000000000000+000000000000000000+000000000000000000+000000000000000000+000000000000000000+000000000000000000+000000000000000000+000000000000000000+000000000000000000+000000000000000000+USD99999710     000000000000000000+00000000000000000000000000000000000000000000OSADOLOR  50050010750001U.S.DOLLARS CURRENCY                                                                                                       NUSD000000000000000000+0000000000+000000010000000000+000000000000000000+USD              X
GCA00002411TGV1045131USD999997    USD999997US  952JVECUSD2018060420180604000000000000000000+000000000000000000+000000000000000000+000000000000000000+000000000000000000+000000000000000000+000000000000000000+000000000000000000+000000000000000000+000000000000000000+000000000000000000+000000000000000000+000000000000000000+000000000000000000+000000000000000000+000000000000000000+000000000000000000+000000000000000000+000000000000000000+USD99999710     000000000000000000+00000000000000000000000000000000000000000000RODRIGUEZ 50050010750001U.S.DOLLARS CURRENCY                                                                                                       NUSD000000000000000000+0000000000+000000010000000000+000000000000000000+USD              X
GCA00002412TGV1045391USD999997    USD999997US  P02JVECUSD2018060420180604000000000000000000+000000000000000000+000000000000000000+000000000000000000+000000000000000000+000000000000000000+000000000000000000+000000000000000000+000000000000000000+000000000000000000+000000000000000000+000000000000000000+000000000000000000+000000000000000000+000000000000000000+000000000000000000+000000000000000000+000000000000000000+000000000000000000+USD99999710     000000000000000000+00000000000000000000000000000000000000000000RABIELA   50050010750001U.S.DOLLARS CURRENCY                                                                                                       NUSD000000000000000000+0000000000+000000010000000000+000000000000000000+USD              X
GCA00002413TGV1045701USD999997    USD999997US  387JVECUSD2018060420180604000000000000000000+000000000000000000+000000000000000000+000000000000000000+000000000000000000+000000000000000000+000000000000000000+000000000000000000+000000000000000000+000000000000000000+000000000000000000+000000000000000000+000000000000000000+000000000000000000+000000000000000000+000000000000000000+000000000000000000+000000000000000000+000000000000000000+USD99999710     000000000000000000+00000000000000000000000000000000000000000000GARCIA PRI50050010750001U.S.DOLLARS CURRENCY                                                                                                       NUSD000000000000000000+0000000000+000000010000000000+000000000000000000+USD              X
GCA00002414TGV1046381USD999997    USD999997FR  Q02JVECUSD2018060420180604000000000321809000+000000000321809000+000000000000000000+000000000000000000+000000000000000000+000000000000000000+000000000000000000+000000000000000000+000000000000000000+000000000000000000+000000000000000000+000000000000000000+000000000000000000+000000000000000000+000000000000000000+000000000000000000+000000000000000000+000000000000000000+000000000000000000+USD99999710     000000000000000000+00000000000000000000000000000000000000000000AGUIRRE MU500   10750001U.S.DOLLARS CURRENCY                                                                                                       NUSD000000000003218090+0000000000+000000010000000000+000000000003218090+USD              X
GCA00002415TGV1046462USD999997    USD999997US  Q02JVECUSD2018060420180604000000000000000000+000000000000000000+000000000000000000+000000000000000000+000000000000000000+000000000000000000+000000000000000000+000000000000000000+000000000000000000+000000000000000000+000000000000000000+000000000000000000+000000000000000000+000000000000000000+000000000000000000+000000000000000000+000000000000000000+000000000000000000+000000000000000000+USD99999710     000000000000000000+00000000000000000000000000000000000000000000AGUIRRE MU50050010750001U.S.DOLLARS CURRENCY                                                                                                       NUSD000000000000000000+0000000000+000000010000000000+000000000000000000+USD              X
GCA00002416TGV1046792USD999997    USD999997US  Y12JVECUSD2018060420180604000000000196609000+000000000196609000+000000000000000000+000000000000000000+000000000000000000+000000000000000000+000000000000000000+000000000000000000+000000000000000000+000000000000000000+000000000000000000+000000000000000000+000000000000000000+000000000000000000+000000000000000000+000000000000000000+000000000000000000+000000000000000000+000000000000000000+USD99999710     000000000000000000+00000000000000000000000000000000000000000000CUEVA     50050010750001U.S.DOLLARS CURRENCY                                                                                                       NUSD000000000001966090+0000000000+000000010000000000+000000000001966090+USD              X
GCA00002417TGV1046951G5648E497    G5648E497IE  R20JVESUSD2018060420180604000000000118236900+000000000118236900+000000000117814300+000000000000000000+000000000000000000+000000000000000000+000000000000000000+000000000000000000+000000000000000000+000000000000000000+000000000117814300+000000000000000000+000000000000000000+000000000000000000+000000000000000000+000000000001204834+000000000001204834+000000000001204834+000000000000000000+G5648E497001072Y000000000000000000+00000000000000000000000000000000000000000000MILLET CAM500   01110004LORD ABBETT HIGH    YIELD FUND CLASS N  (DIS) (USD)         (OFFSHORE)                                                  RRRNUSD000000000012048340+0000000000+000000010000000000+000000000012048340+USDIIE00BFNWZ025 X
EOF      PERSHING GLOBAL CUST POS    DATA OF  06/04/2018 TO REMOTE JUE  ENDS HERE. TOTAL DETAIL RECORDS: 0000002867   UPDATED                                                                                                                                                                                                                                                                                                                                                                                                                                                                                                                                                                                                                                                Z
